{
  "_format": "hh-sol-artifact-1",
  "contractName": "WavePortal",
  "sourceName": "contracts/WavePortal.sol",
  "abi": [
    {
      "inputs": [],
      "stateMutability": "nonpayable",
      "type": "constructor"
    },
    {
      "inputs": [
        {
          "internalType": "address",
          "name": "_account",
          "type": "address"
        }
      ],
      "name": "addAddressToHistory",
      "outputs": [],
      "stateMutability": "nonpayable",
      "type": "function"
    },
    {
      "inputs": [],
      "name": "getTotalWaves",
      "outputs": [
        {
          "internalType": "uint256",
          "name": "",
          "type": "uint256"
        }
      ],
      "stateMutability": "view",
      "type": "function"
    },
    {
      "inputs": [],
      "name": "getWaveHistory",
      "outputs": [
        {
          "internalType": "address[]",
          "name": "",
          "type": "address[]"
        }
      ],
      "stateMutability": "view",
      "type": "function"
    },
    {
      "inputs": [],
      "name": "wave",
      "outputs": [],
      "stateMutability": "nonpayable",
      "type": "function"
    }
  ],
  "bytecode": "0x608060405234801561001057600080fd5b5061003c6040518060600160405280602581526020016109b16025913961004160201b61025b1760201c565b6101c4565b6100dd8160405160240161005591906101a2565b6040516020818303038152906040527f41304fac000000000000000000000000000000000000000000000000000000007bffffffffffffffffffffffffffffffffffffffffffffffffffffffff19166020820180517bffffffffffffffffffffffffffffffffffffffffffffffffffffffff83818316178352505050506100e060201b60201c565b50565b60008151905060006a636f6e736f6c652e6c6f679050602083016000808483855afa5050505050565b600081519050919050565b600082825260208201905092915050565b60005b83811015610143578082015181840152602081019050610128565b83811115610152576000848401525b50505050565b6000601f19601f8301169050919050565b600061017482610109565b61017e8185610114565b935061018e818560208601610125565b61019781610158565b840191505092915050565b600060208201905081810360008301526101bc8184610169565b905092915050565b6107de806101d36000396000f3fe608060405234801561001057600080fd5b506004361061004c5760003560e01c80636fe15b44146100515780638ab7806a1461005b5780639a2cdc0814610079578063be92072514610097575b600080fd5b6100596100b3565b005b61006361011c565b6040516100709190610545565b60405180910390f35b6100816101aa565b60405161008e9190610580565b60405180910390f35b6100b160048036038101906100ac91906105cc565b6101f5565b005b60016000808282546100c59190610628565b9250508190555060003390506100da816101f5565b6101196040518060400160405280600d81526020017f2573206861732077617665642100000000000000000000000000000000000000815250826102f4565b50565b606060018054806020026020016040519081016040528092919081815260200182805480156101a057602002820191906000526020600020905b8160009054906101000a900473ffffffffffffffffffffffffffffffffffffffff1673ffffffffffffffffffffffffffffffffffffffff1681526020019060010190808311610156575b5050505050905090565b60006101ed6040518060400160405280601781526020017f5765206861766520256420746f74616c20776176657321000000000000000000815250600054610390565b600054905090565b6001819080600181540180825580915050600190039060005260206000200160009091909190916101000a81548173ffffffffffffffffffffffffffffffffffffffff021916908373ffffffffffffffffffffffffffffffffffffffff16021790555050565b6102f18160405160240161026f9190610717565b6040516020818303038152906040527f41304fac000000000000000000000000000000000000000000000000000000007bffffffffffffffffffffffffffffffffffffffffffffffffffffffff19166020820180517bffffffffffffffffffffffffffffffffffffffffffffffffffffffff838183161783525050505061042c565b50565b61038c828260405160240161030a929190610748565b6040516020818303038152906040527f319af333000000000000000000000000000000000000000000000000000000007bffffffffffffffffffffffffffffffffffffffffffffffffffffffff19166020820180517bffffffffffffffffffffffffffffffffffffffffffffffffffffffff838183161783525050505061042c565b5050565b61042882826040516024016103a6929190610778565b6040516020818303038152906040527f9710a9d0000000000000000000000000000000000000000000000000000000007bffffffffffffffffffffffffffffffffffffffffffffffffffffffff19166020820180517bffffffffffffffffffffffffffffffffffffffffffffffffffffffff838183161783525050505061042c565b5050565b60008151905060006a636f6e736f6c652e6c6f679050602083016000808483855afa5050505050565b600081519050919050565b600082825260208201905092915050565b6000819050602082019050919050565b600073ffffffffffffffffffffffffffffffffffffffff82169050919050565b60006104ac82610481565b9050919050565b6104bc816104a1565b82525050565b60006104ce83836104b3565b60208301905092915050565b6000602082019050919050565b60006104f282610455565b6104fc8185610460565b935061050783610471565b8060005b8381101561053857815161051f88826104c2565b975061052a836104da565b92505060018101905061050b565b5085935050505092915050565b6000602082019050818103600083015261055f81846104e7565b905092915050565b6000819050919050565b61057a81610567565b82525050565b60006020820190506105956000830184610571565b92915050565b600080fd5b6105a9816104a1565b81146105b457600080fd5b50565b6000813590506105c6816105a0565b92915050565b6000602082840312156105e2576105e161059b565b5b60006105f0848285016105b7565b91505092915050565b7f4e487b7100000000000000000000000000000000000000000000000000000000600052601160045260246000fd5b600061063382610567565b915061063e83610567565b9250827fffffffffffffffffffffffffffffffffffffffffffffffffffffffffffffffff03821115610673576106726105f9565b5b828201905092915050565b600081519050919050565b600082825260208201905092915050565b60005b838110156106b857808201518184015260208101905061069d565b838111156106c7576000848401525b50505050565b6000601f19601f8301169050919050565b60006106e98261067e565b6106f38185610689565b935061070381856020860161069a565b61070c816106cd565b840191505092915050565b6000602082019050818103600083015261073181846106de565b905092915050565b610742816104a1565b82525050565b6000604082019050818103600083015261076281856106de565b90506107716020830184610739565b9392505050565b6000604082019050818103600083015261079281856106de565b90506107a16020830184610571565b939250505056fea26469706673582212203926de6f5472471783d24996f6117d9e38fe9501e0cf6d6e1892e682d04e60fe64736f6c63430008090033596f20796f2c204920616d206120636f6e747261637420616e64204920616d20736d617274",
  "linkReferences": {},
  "deployedLinkReferences": {}
}